:100000000C943E000C945B000C945B000C945B0021
:100010000C945B000C945B000C945B000C945B00F4
:100020000C945B000C945B000C945B000C945B00E4
:100030000C945B000C945B000C945B000C945B00D4
:100040000C945B000C945B000C945B000C945B00C4
:100050000C945B000C945B000C945B000C94B70058
:100060000C945B000C945B000C945B000C945B00A4
:100070000C945B000C945B000C945B0011241FBE7D
:10008000CFEFD4E0DEBFCDBF12E0A0E0B1E0E8E703
:10009000FFE002C005900D92A032B107D9F712E03F
:1000A000A0E2B2E001C01D92A633B107E1F70E94C1
:1000B0005D000C94BA070C940000539884B18F6BC8
:1000C00084B987B18F6B87B98AB18F6B8AB98091F8
:1000D00081008560809381007894E0912002F09106
:1000E0002102EE0FFF1FEE0FFF1FE25DFD4F60814B
:1000F00071818281938120E030E0A9010E94ED02AC
:1001000020E030E040E854E40E944B0320E034E279
:1001100044E759E40E9445049B01AC01209322026C
:10012000309323024093240250932502209122020F
:1001300030912302409124025091250261E479E537
:100140008FE79FE30E94450426E03AE24FE050E447
:100150000E944B0360932A0270932B0280932C021F
:1001600090932D0288E590E00E944E01B6CF1F9239
:100170000F920FB60F9211242F933F934F935F93DB
:100180006F937F938F939F93AF93BF93CF93DF939F
:10019000EF93FF93E4E8F0E06081718111821082B7
:1001A000C0912002D0912102CC0FDD1FCC0FDD1FAA
:1001B000C25DDD4F80E090E00E9453056883798343
:1001C0008A839B838091200290912102019662E0B4
:1001D00070E00E945C079093210280932002FF91BF
:1001E000EF91DF91CF91BF91AF919F918F917F91CF
:1001F0006F915F914F913F912F910F900FBE0F9094
:100200001F901895BA01882777FD8095982F0E9436
:10021000F30460932A0270932B0280932C02909334
:100220002D0208958150893030F4E82FF0E0E25F2C
:10023000FE4F808108958FE30895CF93DF93E62FDB
:10024000F72F20E030E090E041E050E0DC01022EAA
:1002500002C0B595A7950A94E2F76081A0FF0AC095
:10026000A8B1EA0102C0CC0FDD1F6A95E2F7AC2B02
:10027000A8B90BC0A8B1EA0102C0CC0FDD1F6A9576
:10028000E2F7BE0161606A2368B92F5F3F4F319684
:1002900027303105D9F6DF91CF910895DF92EF92A3
:1002A000FF920F931F93DF93CF93CDB7DEB72E97B7
:1002B0000FB6F894DEBF0FBECDBFDE011196E7E0AA
:1002C000F1E027E001900D922150E1F7DE01189650
:1002D000E0E0F1E027E001900D922150E1F7843653
:1002E000910514F083E690E00AE010E0B8010E9466
:1002F0005C077B010E941201D82EC701B8010E9441
:100300005C071816190624F40E941201082F01C078
:1003100000E08D2DBE016F5F7F4F0E941D01802F79
:10032000BE01685F7F4F0E941D012E960FB6F894A4
:10033000DEBF0FBECDBFCF91DF911F910F91FF9018
:10034000EF90DF900895A0E0B0E0E9EAF1E00C94CE
:100350008707FC01EA018081823008F438C1DB01A3
:100360009C91923008F430C1843059F4943009F0F3
:100370002EC1918111968C911197981709F021C186
:1003800026C1943009F420C19230B1F4823009F0D2
:100390001EC1CA01AF0128E0DA010D90AD01DC01F8
:1003A0000D92CD012150C1F7DB0111968C9111976F
:1003B0009181892389830AC1823009F405C1C280F1
:1003C000D380DB0112966D907C9013972481358148
:1003D000468157811496ED90FD900D911C911797D1
:1003E000C601861997095C0197FF04C0AA24BB24A3
:1003F000A81AB90AB0E2AB16B1040CF061C0181625
:1004000019066CF5370148010A2C04C096948794AC
:10041000779467940A94D2F781E090E0A0E0B0E08E
:100420000A2C04C0880F991FAA1FBB1F0A94D2F779
:100430000197A109B1098E219F21A023B123EE24A8
:10044000FF248701E3940097A105B10519F4EE2478
:10045000FF248701E628F728082919293CC00097BE
:10046000D1F1CA0CDB1C39014A010A2C04C0969454
:100470008794779467940A94D2F781E090E0A0E0A3
:10048000B0E00A2C04C0880F991FAA1FBB1F0A9452
:10049000D2F70197A109B10982239323A423B5239D
:1004A00021E030E040E050E00097A105B10519F4EB
:1004B00020E030E0A90126293729482959290BC015
:1004C0006C147D0424F4EE24FF24870104C063012E
:1004D00020E030E0A9018181FB019181891709F4B5
:1004E00045C0882349F0D801C701821B930BA40B98
:1004F000B50B9C01AD0104C02E193F09400B510BF7
:1005000057FD04C01982DB82CA820BC081E0898357
:10051000DB82CA8250954095309521953F4F4F4FD1
:100520005F4F2C833D834E835F830DC0880F991FDF
:10053000AA1FBB1F8C839D83AE83BF838A819B814F
:1005400001979B838A838C819D81AE81BF819C01B1
:10055000AD0121503040404050402F3FEFEF3E076B
:10056000EFEF4E07EFE35E0708F30BC08983DB82F2
:10057000CA822E0D3F1D401F511F2C833D834E8389
:100580005F8383E088832C813D814E815F8157FFAB
:100590001DC0DA01C90181709070A070B0705695CD
:1005A000479537952795822B932BA42BB52B8C83BE
:1005B0009D83AE83BF838A819B8101969B838A83BF
:1005C00005C0E7E1F1E003C0FB0101C0FE01CF017E
:1005D000CDB7DEB7EEE00C94A307A0E2B0E0E3EF06
:1005E000F2E00C948F0769837A838B839C832D833D
:1005F0003E834F83588789E0E82EF12CEC0EFD1ED8
:10060000CE010196B7010E94F3068E010F5E1F4FC7
:10061000CE010596B8010E94F306C701B801AE01EC
:10062000475E5F4F0E94A3010E942506A096E6E068
:100630000C94AB07A0E2B0E0E0E2F3E00C948F078B
:1006400069837A838B839C832D833E834F83588772
:100650008E01075F1F4FCE010196B8010E94F3067D
:1006600091E1E92EF12CEC0EFD1ECE010596B701AD
:100670000E94F3068A8991E089278A8BC801B70115
:10068000AE01475E5F4F0E94A3010E942506A0961F
:10069000E6E00C94AB07A0E2B0E0E1E5F3E00C94F7
:1006A000830769837A838B839C832D833E834F8367
:1006B0005887CE010196BE01675F7F4F0E94F30607
:1006C000CE010596BE016F5E7F4F0E94F3069985AD
:1006D000923078F089898230C0F0943019F48230F9
:1006E00041F4CBC0843019F4923079F4C6C0923012
:1006F00051F481E02A859A89291709F480E08A87D4
:10070000CE010996BCC0823051F481E02A859A89D5
:10071000291709F480E08A8BCE014196B0C06D8420
:100720007E848F849888ED88FE880F89188DE0E29A
:10073000F0E080E090E0DC01AA24BB24650120E029
:1007400030E0A901B3016170707061157105D1F0DD
:100750002E0D3F1D401F511F15012601280E391E69
:100760004A1E5B1E81E090E0A0E0B0E02E153F0540
:100770004007510718F080E090E0DC01820D931DE6
:10078000A41DB51DAA0CBB1CCC1CDD1C17FF09C089
:1007900061E0262E312C412C512CA228B328C428EC
:1007A000D528319749F0EE0CFF1C001F111F9694BD
:1007B000879477946794C6CF6B897C89EB85FC8599
:1007C0006E0F7F1F6E5F7F4F7C8F6B8F61E0EA85BE
:1007D0007A89E71709F460E06A8F6B8D7C8D10C011
:1007E000FC01E170F070309729F0569547953795E8
:1007F00027955068B695A795979587956F5F7F4F1A
:10080000B7FDEECF0CC0880F991FAA1FBB1F57FD65
:100810008160220F331F441F551F6150704080308C
:10082000E0E09E07E0E0AE07E0E4BE0760F36B8F18
:100830007C8F6FE7E62EF12C012D112DE822F92295
:100840000A231B2360E4E616F1040105110561F497
:1008500087FD0AC0211531054105510529F0805C4D
:100860009F4FAF4FBF4F80788D8F9E8FAF8FB8A3B4
:1008700083E0898FCE01499602C087E191E00E9412
:100880002506A096E2E10C949F07A8E1B0E0EBE416
:10089000F4E00C948B0769837A838B839C832D838C
:1008A0003E834F8358878E01075F1F4FCE0101960D
:1008B000B8010E94F30681E1E82EF12CEC0EFD1E3A
:1008C000CE010596B7010E94F3069985923008F48F
:1008D00083C08989823008F47BC02A853A8923271E
:1008E0002A87943011F0923021F4981709F06CC0E7
:1008F00071C0843039F41D861E861F86188A1C86B6
:100900001B866AC0823019F484E0898765C08B85B4
:100910009C852B893C89821B930B9C878B872D851B
:100920003E854F855889ED88FE880F89188D2E15D4
:100930003F054007510738F4220F331F441F551F4E
:1009400001979C878B876FE170E0A12CB12CC12CA3
:10095000A0E4DA2E80E090E0DC012E153F05400790
:10096000510740F08A299B29AC29BD292E193F093E
:10097000400B510BD694C794B794A794220F331F02
:10098000441F551F6150704041F76FE7E62EF12C70
:10099000012D112DE822F9220A231B2360E4E6161B
:1009A000F1040105110561F487FD0AC02115310527
:1009B0004105510529F0805C9F4FAF4FBF4F8078B4
:1009C0008D879E87AF87B88B8E01075F1F4F04C04E
:1009D000870102C007E111E0C8010E942506689660
:1009E000EAE00C94A707A8E0B0E0E9EFF4E00C948B
:1009F0008F077B018C0183E08983D801C701882799
:100A0000B7FD83959927AA27BB27282F8A83E1144E
:100A1000F1040105110519F482E0898337C08EE1E4
:100A200090E09C838B83222389F080E0E81680E0AD
:100A3000F80680E0080780E8180769F1109500952E
:100A4000F094E094E11CF11C011D111DED82FE8269
:100A50000F831887C801B7010E94CB059C01215064
:100A600030401216130694F4022E04C0EE0CFF1C44
:100A7000001F111F0A94D2F7ED82FE820F831887A0
:100A80008EE190E0821B930B9C838B83CE010196B9
:100A90000E94250604C060E070E080E09FEC28968C
:100AA000E6E00C94AB07A8E0B0E0E9E5F5E00C94D3
:100AB0008D077B018C011A826115710581059105F5
:100AC00019F482E089835FC083E089838EE1C82EB8
:100AD000D12CDC82CB82ED82FE820F831887C80185
:100AE000B7010E94CB05FC013197F7FF3AC0AA2756
:100AF000BB27AE1BBF0B21E030E040E050E00A2EE8
:100B000004C0220F331F441F551F0A94D2F72150EF
:100B10003040404050402E213F214023512361E08E
:100B200070E080E090E0211531054105510519F490
:100B300060E070E0CB0104C016950795F794E79448
:100B4000AA95D2F7E62AF72A082B192BED82FE8206
:100B50000F8318878EE190E08E1B9F0B9C838B8305
:100B600012C0309781F00E2E04C0EE0CFF1C001F47
:100B7000111F0A94D2F7ED82FE820F831887CE1AD6
:100B8000DF0ADC82CB82CE0101960E9425062896E0
:100B9000E8E00C94A907AF92BF92CF92DF92EF9258
:100BA000FF920F931F937B018C0180E0E81680E099
:100BB000F80681E0080780E0180758F4EFEFEE161A
:100BC000F1040105110509F090F480E090E0DC01EA
:100BD00017C0F0E0EF16F0E0FF06F0E00F07F1E0DD
:100BE0001F0750F480E190E0A0E0B0E009C088E089
:100BF00090E0A0E0B0E004C088E190E0A0E0B0E0C8
:100C000020E230E040E050E0281B390B4A0B5B0B40
:100C10005701680104C0D694C794B794A7948A95E5
:100C2000D2F7D601C501815E9E4FFC018081281B51
:100C3000310941095109C9011F910F91FF90EF90AE
:100C4000DF90CF90BF90AF900895EF92FF920F93F7
:100C50001F93CF93DF93FC01248135814681578117
:100C600061818081823020F44061EFEFF0E0A3C029
:100C7000843009F49BC0823009F492C021153105FB
:100C80004105510509F48FC00280F381E02D8FEFFB
:100C9000E238F8070CF05AC0C2E8DFEFCE1BDF0BDA
:100CA000CA31D1056CF579018A010C2E04C0169564
:100CB0000795F794E7940A94D2F781E090E0A0E0DA
:100CC000B0E00C2E04C0880F991FAA1FBB1F0A9406
:100CD000D2F70197A109B10982239323A423B52355
:100CE00021E030E040E050E00097A105B10519F4A3
:100CF00020E030E0A9012E293F29402B512B03C0D1
:100D000020E030E0A901DA01C9018F779070A0706E
:100D1000B07080349105A105B10539F427FF09C0F1
:100D2000205C3F4F4F4F5F4F04C0215C3F4F4F4F00
:100D30005F4FE1E0F0E0203080E0380780E04807D6
:100D400080E4580728F5E0E0F0E022C0E038F10543
:100D50006CF5E158FF4FDA01C9018F779070A070F0
:100D6000B07080349105A105B10539F427FF09C0A1
:100D7000205C3F4F4F4F5F4F04C0215C3F4F4F4FB0
:100D80005F4F57FF05C05695479537952795319684
:100D900087E056954795379527958A95D1F70BC0EB
:100DA000E0E0F0E005C0E0E0F0E005C0EFEFF0E0EB
:100DB00020E030E0A9018E2F879588278795942F12
:100DC0009F77679566276795E695E22EA92FA82B52
:100DD000FE2FF62B622F732F8A2F9F2FCDB7DEB7F2
:100DE000E6E00C94AB07DC01FB012C9111963C91E1
:100DF000119712968C911297482F4F7750E0982FA9
:100E0000991F9927991F13966C911397862F880F16
:100E1000892B90E0661F6627661F6183009739F56E
:100E2000211531054105510511F482E029C082E800
:100E30009FEF9383828367E0220F331F441F551F68
:100E40006A95D1F783E0808309C0220F331F441FC6
:100E5000551F82819381019793838283203080E0A4
:100E6000380780E0480780E4580778F320C08F3FB8
:100E7000910579F4211531054105510519F484E0F6
:100E80008083089544FF03C081E0808310C01082F6
:100E90000EC08F5790409383828383E0808387E0E6
:100EA000220F331F441F551F8A95D1F750642483A6
:100EB000358346835783089597FB092E07260AD06A
:100EC00077FD04D00CD006D000201AF470956195FF
:100ED0007F4F0895F6F7909581959F4F0895AA1B2F
:100EE000BB1B51E107C0AA1FBB1FA617B70710F015
:100EF000A61BB70B881F991F5A95A9F78095909547
:100F0000BC01CD0108952F923F924F925F926F9254
:100F10007F928F929F92AF92BF92CF92DF92EF9289
:100F2000FF920F931F93CF93DF93CDB7DEB7CA1B0A
:100F3000DB0B0FB6F894DEBF0FBECDBF09942A8835
:100F4000398848885F846E847D848C849B84AA84DD
:100F5000B984C884DF80EE80FD800C811B81AA816A
:100F6000B981CE0FD11D0FB6F894DEBF0FBECDBF35
:080F7000ED010895F894FFCF94
:100F78000001020304050600010405060707065BD5
:100F88004F666D7D077F6F000000000000000000C5
:100F98000102020303030304040404040404040513
:100FA80005050505050505050505050505050506E8
:100FB80006060606060606060606060606060606C9
:100FC80006060606060606060606060606060607B8
:100FD8000707070707070707070707070707070799
:100FE8000707070707070707070707070707070789
:100FF8000707070707070707070707070707070779
:101008000707070707070707070707070707070867
:101018000808080808080808080808080808080848
:101028000808080808080808080808080808080838
:101038000808080808080808080808080808080828
:101048000808080808080808080808080808080818
:101058000808080808080808080808080808080808
:1010680008080808080808080808080808080808F8
:1010780008080808080808080808080808080808E8
:1010880008080808080808080808080808080800E0
:00000001FF
